S012000041544D454741323536302E7372656396
S113000071C000008EC000008CC000008AC00000D7
S113001088C0000086C0000084C0000082C00000C8
S113002080C000007EC000007CC000007AC00000D8
S113003078C0000076C0000074C0000072C00000E8
S113004070C000006EC000006CC000006AC00000F8
S113005068C0000066C0000064C0000062C0000008
S113006060C00000AFC000005CC000005AC00000C7
S113007058C0000056C0000054C0000052C0000028
S113008050C000004EC000004CC000004AC0000038
S113009048C0000046C0000044C0000042C0000048
S11300A040C000003EC000003CC000003AC0000058
S11300B038C0000036C0000034C0000032C0000068
S11300C030C000002EC000002CC000002AC0000078
S11300D028C0000026C0000024C0000022C0000088
S11300E020C0000011241FBECFEFD1E2DEBFCDBF80
S11300F000E00CBF12E0A0E0B2E0E8EEF1E000E0C6
S11301000BBF02C007900D92A030B107D9F726E0CB
S1130110A0E0B2E001C01D92A834B207E1F702D01A
S113012061C06ECF789484B1806284B922E043E0E8
S113013061E081E00CD020E040E060E081E02CD080
S113014081E090E09093890080938800F9CF882320
S113015019F0813079F0089585B5682B65BD84B5B3
S1130160482B44BD84B590E4299F90011124282B89
S113017024BD0895E1E8F0E08081682B6083E0E825
S1130180F0E08081482B4083808190E4299F900196
S11301901124282B20830895811113C0EEE6F0E08A
S11301A0808170E0660F771F682B6083808150E048
S11301B0440F551F440F551F482B40838081282B23
S11301C0208308951F920F920FB60F9211248F93DC
S11301D08091C600809347068F910F900FBE0F90B9
S10B01E01F901895F894FFCF5D
S9030000FC
