:1000000071C000008EC000008CC000008AC00000DB
:1000100088C0000086C0000084C0000082C00000CC
:1000200080C000007EC000007CC000007AC00000DC
:1000300078C0000076C0000074C0000072C00000EC
:1000400070C000006EC000006CC000006AC00000FC
:1000500068C0000066C0000064C0000062C000000C
:1000600060C000005FC000005CC000005AC000001B
:1000700058C0000056C0000054C0000052C000002C
:1000800050C000004EC000004CC000004AC000003C
:1000900048C0000046C0000044C0000042C000004C
:1000A00040C000003EC000003CC000003AC000005C
:1000B00038C0000036C0000034C0000032C000006C
:1000C00030C000002EC000002CC000002AC000007C
:1000D00028C0000026C0000024C0000022C000008C
:1000E00020C0000011241FBECFEFD1E2DEBFCDBF84
:1000F00000E00CBF23E0A0E0B2E001C01D92AF33EE
:10010000B207E1F712E0A0E0B2E0E4EAF3E000E0D9
:100110000BBF02C007900D92A030B107D9F749D0AC
:100120003FC16ECF1F920F920FB60F9211240BB6E4
:100130000F922F933F934F935F936F937F938F9380
:100140009F93AF93BF93EF93FF93E0911102F091D0
:1001500012028091C600ED5EFD4F808381E4D1D014
:100160008FE39CE90197F1F700C000008091110234
:1001700090911202019690931202809311028F3F88
:10018000910521F41092120210921102FF91EF9149
:10019000BF91AF919F918F917F916F915F914F919F
:1001A0003F912F910F900BBE0F900FBE0F901F909D
:1001B0001895E0E3F3E080E895E29287818780E09C
:1001C00094E2A4EFB0E083879487A587B687158271
:1001D00010821182128283E08383148202D09FD026
:1001E000FFCFCF93DF93C0E3D3E06B857C858D8514
:1001F0009E8529853A8540E050E0B0D0DA01C901FA
:10020000689413F8B695A795979587951694D1F7A6
:100210009C012150310938872F83E0ECF0E01082F7
:100220001092C100A2ECB0E01C929C918881829552
:10023000880F880F807C892B8C9320819D81892F4A
:100240008170880F822B80839230D8F56B857C85F6
:100250008D859E8529853A8540E050E07FD0DA0182
:10026000C901689413F8B695A79597958795169444
:10027000D1F79C012150310938872F83A1ECB0E0E0
:1002800088E18C93E2ECF0E020819B81892F8370E0
:10029000880F822B80838C919470982B9C939081F3
:1002A0008A81880F880F880F892B808390818981AC
:1002B0008295807F892B808390818C81892B80839C
:1002C00013C0911111C01092C5001092C4008DB1DD
:1002D00084608DB9E2ECF0E0908180913603892B47
:1002E000808388E18093C100E0E3F3E0878190851B
:1002F0009093C500878190858093C400DF91CF9152
:1003000008959091C00095FFFCCF8093C600809126
:10031000C00085FFFCCF8AE08093C6000895F89462
:100320001092010210920002109212021092110219
:10033000E1ECF0E0808180688083809111029091EF
:100340001202009719F48091110304C0FC01EE5EC3
:10035000FD4F80818D3009F48AE00895A1E21A2EC4
:10036000AA1BBB1BFD010DC0AA1FBB1FEE1FFF1F59
:10037000A217B307E407F50720F0A21BB30BE40BA9
:10038000F50B661F771F881F991F1A9469F76095F0
:100390007095809590959B01AC01BD01CF010895AA
:0403A000F894FFCFFF
:00000001FF
