:1000000071C000008EC000008CC000008AC00000DB
:1000100088C0000086C0000084C0000082C00000CC
:1000200080C000007EC000007CC000007AC00000DC
:1000300078C0000076C0000074C0000072C00000EC
:1000400070C000006EC000006CC000006AC00000FC
:1000500068C0000066C0000064C0000062C000000C
:1000600060C00000BEC000005CC000005AC00000BC
:1000700058C0000056C0000054C0000052C000002C
:1000800050C000004EC000004CC000004AC000003C
:1000900048C0000046C0000044C0000042C000004C
:1000A00040C000003EC000003CC000003AC000005C
:1000B00038C0000036C0000034C0000032C000006C
:1000C00030C000002EC000002CC000002AC000007C
:1000D00028C0000026C0000024C0000022C000008C
:1000E00020C0000011241FBECFEFD1E2DEBFCDBF84
:1000F00000E00CBF26E0A0E0B2E001C01D92A834F1
:10010000B207E1F712E0A0E0B2E0E0EFF4E000E0D7
:100110000BBF02C007900D92A030B107D9F732D0C3
:10012000E5C16ECFECE7F0E090818295880F880FF3
:10013000807C892B80830895EAE7F0E080818064E9
:10014000808380917800909179000895811106C094
:10015000EAE7F0E080818F7780830895813041F471
:10016000EAE7F0E09081879588278795892B80833F
:100170000895EAE7F0E09081987F90839081892B41
:1001800080830895CF93DF9300D01F92CDB7DEB761
:1001900084B1816084B981E0C5DF87E0EADF81E076
:1001A000D5DFCADFBC0180E090E057D02AE535EF0B
:1001B00049EF5EE3B8D025D0DC01CB014AE0BE01B7
:1001C0006F5F7F4F58D1CE01019638D182399105AA
:1001D00020F085B1816085B9E4CF85B18E7F85B986
:1001E000E0CF1F920F920FB60F9211248F93809140
:1001F000C600809347068F910F900FBE0F901F90FF
:10020000189570D088F09F5790F0B92F9927B75163
:10021000A0F0D1F0660F771F881F991F1AF0BA95CA
:10022000C9F712C0B13081F077D0B1E0089574C041
:10023000672F782F8827B85F39F0B93FCCF38695C0
:1002400077956795B395D9F73EF49095809570951D
:1002500061957F4F8F4F9F4F0895E89409C097FB9A
:100260003EF490958095709561957F4F8F4F9F4F8D
:100270009923A9F0F92F96E9BB279395F6958795D1
:1002800077956795B795F111F8CFFAF4BB0F11F494
:1002900060FF1BC06F5F7F4F8F4F9F4F16C088233B
:1002A00011F096E911C0772321F09EE8872F762F71
:1002B00005C0662371F096E8862F70E060E02AF0B2
:1002C0009A95660F771F881FDAF7880F969587959E
:1002D00097F9089557FD9058440F551F59F05F3F07
:1002E00071F04795880F97FB991F61F09F3F79F058
:1002F00087950895121613061406551FF2CF4695DA
:10030000F1DF08C0161617061806991FF1CF86955B
:100310007105610508940895E894BB27662777273F
:10032000CB0197F908950BD078C069D028F06ED032
:1003300018F0952309F05AC05FC01124EECFCADF30
:10034000A0F3959FD1F3950F50E0551F629FF001E8
:10035000729FBB27F00DB11D639FAA27F00DB11D41
:10036000AA1F649F6627B00DA11D661F829F2227CA
:10037000B00DA11D621F739FB00DA11D621F839F51
:10038000A00D611D221F749F3327A00D611D231F27
:10039000849F600D211D822F762F6A2F11249F5775
:1003A00050408AF0E1F088234AF0EE0FFF1FBB1F98
:1003B000661F771F881F91505040A9F79E3F510537
:1003C00070F014C0AACF5F3FECF3983EDCF3869543
:1003D00077956795B795F795E7959F5FC1F7FE2BE2
:1003E000880F911D9695879597F9089597F99F67BE
:1003F00080E870E060E008959FEF80EC08950024AD
:100400000A941616170618060906089500240A9479
:1004100012161306140605060895092E0394000CFF
:1004200011F4882352F0BB0F40F4BF2B11F460FF8E
:1004300004C06F5F7F4F8F4F9F4F0895FC01882747
:100440009927E89421912032E9F3293010F02E30D9
:10045000C8F32B3239F02D3231F4689403C015D033
:10046000820F911D219120532A30C8F31EF49095DC
:1004700081959F4F0895BB274A3031F4992322F488
:10048000BDE2909581959F4F09C07AE0979F902D8E
:10049000879F802D910D11240895BB27FB015527BF
:1004A000AA27880F991FAA1FA41710F0A41B8395D1
:1004B0005051B9F7A05DAA3308F0A95DA193009748
:1004C00079F7B111B1931192CB0100C0DC01FC01AD
:1004D000672F71917723E1F7329704C07C916D9378
:1004E00070836291AE17BF07C8F30895F894FFCFE9
:00000001FF
