:1000000071C000008EC000008CC000008AC00000DB
:1000100088C0000086C0000084C0000082C00000CC
:1000200080C000007EC000007CC000007AC00000DC
:1000300078C0000076C0000074C0000072C00000EC
:1000400070C000006EC000006CC000006AC00000FC
:1000500068C0000066C0000064C0000062C000000C
:1000600060C0000081C000005CC000005AC00000F9
:1000700058C0000056C0000054C0000052C000002C
:1000800050C000004EC000004CC000004AC000003C
:1000900048C0000046C0000044C0000042C000004C
:1000A00040C000003EC000003CC000003AC000005C
:1000B00038C0000036C0000034C0000032C000006C
:1000C00030C000002EC000002CC000002AC000007C
:1000D00028C0000026C0000024C0000022C000008C
:1000E00020C0000011241FBECFEFD1E2DEBFCDBF84
:1000F00000E00CBF12E0A0E0B2E0ECE8F1E000E0CC
:100100000BBF02C007900D92A030B107D9F726E0CF
:10011000A0E0B2E001C01D92A934B207E1F702D01D
:1001200033C06ECF789484B1806284B9E0E8F0E0A7
:10013000808183688083E1E8F0E080818160808352
:10014000109200028FEF0DC0282F30E0309389000D
:1001500020938800EFE3FCE93197F1F700C000003D
:1001600081508111F1CFECCF1F920F920FB60F92F9
:1001700011248F938091C600809348068F910F9031
:0C0180000FBE0F901F901895F894FFCF51
:00000001FF
