:1000000071C000008EC000008CC000008AC00000DB
:1000100088C0000086C0000084C0000082C00000CC
:1000200080C000007EC000007CC000007AC00000DC
:1000300078C0000076C0000074C0000072C00000EC
:1000400070C000006EC000006CC000006AC00000FC
:1000500068C0000066C0000064C0000062C000000C
:1000600060C0000095C100005CC000005AC00000E4
:1000700058C0000056C0000054C0000052C000002C
:1000800050C000004EC000004CC000004AC000003C
:1000900048C0000046C0000044C0000042C000004C
:1000A00040C000003EC000003CC000003AC000005C
:1000B00038C0000036C0000034C0000032C000006C
:1000C00030C000002EC000002CC000002AC000007C
:1000D00028C0000026C0000024C0000022C000008C
:1000E00020C0000011241FBECFEFD1E2DEBFCDBF84
:1000F00000E00CBF26E0A0E0B2E001C01D92A934F0
:10010000B207E1F712E0A0E0B2E0E8EFF3E000E0D0
:100110000BBF02C007900D92A030B107D9F76ED087
:1001200069C16ECF1092B9008CE08093B800089539
:10013000813041F018F0823049F00DC084EA80939C
:10014000BC0009C084E88093BC0005C084E98093AA
:10015000BC0080E008958091BC008823E4F7809182
:10016000B900887F0895CF93DF93D82F80E001C036
:100170008C2FC1E0C80F823310F580E0D9DF8833BF
:10018000B9F3883011F0803191F4D093BB0081E055
:10019000CFDF803269F3883359F3883151F490917D
:1001A000BB0090930002883231F0CFEF05C0CFEF53
:1001B00003C0CFEF01C0C1E082E0BADF01C0CFEFE2
:1001C0008C2FDF91CF910895E62FF0E010823FEF62
:1001D000360FE32FF0E09DEC899F912D1124969529
:1001E00096959695492F440F242F220F220F240F06
:1001F000821B805D8083892F3150EBCF93DFE7E353
:10020000F5E080E895E29287818780E094E2A4EFB0
:10021000B0E083879487A587B68715821082118204
:10022000128283E08383148281E48093480610D095
:100230001092000283E897DF62E080910002C4DF41
:1002400099D08FE99FE00197F1F700C00000F2CF4D
:10025000CF93DF93C7E3D5E06B857C858D859E8545
:1002600029853A8540E050E0A3D0DA01C9016894BD
:1002700013F8B695A795979587951694D1F79C0195
:100280002150310938872F83E0ECF0E01082109282
:10029000C100A2ECB0E01C929C9188818295880FED
:1002A000880F807C892B8C9320819D81892F817080
:1002B000880F822B80839230E0F56B857C858D855D
:1002C0009E8529853A8540E050E072D0DA01C90167
:1002D000689413F8B695A795979587951694D1F7D6
:1002E0009C012150310938872F83A1ECB0E08C911B
:1002F00088698C93E2ECF0E020819B81892F8370E8
:10030000880F822B80838C919470982B9C93908182
:100310008A81880F880F880F892B8083908189813B
:100320008295807F892B808390818C81892B80832B
:1003300013C0911111C01092C5001092C4008DB16C
:1003400084608DB9E2ECF0E0908180913D05892BCD
:10035000808388E18093C100E7E3F5E087819085A1
:100360009093C500878190858093C4007894DF9135
:10037000CF9108958093C6008091C00086FFFCCF86
:100380008AE08093C6008091C00086FFFCCF08956C
:100390001F920F920FB60F9211248F938091C60077
:1003A000809348068F910F900FBE0F901F90189565
:1003B000A1E21A2EAA1BBB1BFD010DC0AA1FBB1F69
:1003C000EE1FFF1FA217B307E407F50720F0A21BDB
:1003D000B30BE40BF50B661F771F881F991F1A9448
:1003E00069F760957095809590959B01AC01BD0172
:0803F000CF010895F894FFCF3E
:00000001FF
